{
  "contractName": "DVote",
  "abi": [
    {
      "inputs": [
        {
          "internalType": "string",
          "name": "",
          "type": "string"
        }
      ],
      "name": "checkVote",
      "outputs": [
        {
          "internalType": "bool",
          "name": "",
          "type": "bool"
        }
      ],
      "stateMutability": "view",
      "type": "function",
      "constant": true
    },
    {
      "inputs": [],
      "name": "endBlock",
      "outputs": [
        {
          "internalType": "uint256",
          "name": "",
          "type": "uint256"
        }
      ],
      "stateMutability": "view",
      "type": "function",
      "constant": true
    },
    {
      "inputs": [],
      "name": "numberOfParties",
      "outputs": [
        {
          "internalType": "uint256",
          "name": "",
          "type": "uint256"
        }
      ],
      "stateMutability": "view",
      "type": "function",
      "constant": true
    },
    {
      "inputs": [
        {
          "internalType": "uint256",
          "name": "",
          "type": "uint256"
        }
      ],
      "name": "parties",
      "outputs": [
        {
          "internalType": "string",
          "name": "",
          "type": "string"
        }
      ],
      "stateMutability": "view",
      "type": "function",
      "constant": true
    },
    {
      "inputs": [
        {
          "internalType": "uint256",
          "name": "",
          "type": "uint256"
        }
      ],
      "name": "partyVote",
      "outputs": [
        {
          "internalType": "uint256",
          "name": "",
          "type": "uint256"
        }
      ],
      "stateMutability": "view",
      "type": "function",
      "constant": true
    }
  ],
  "bytecode": "0x608060405233600160006101000a81548173ffffffffffffffffffffffffffffffffffffffff021916908373ffffffffffffffffffffffffffffffffffffffff160217905550600d6202a300620000579190620003bc565b43620000649190620003f4565b60025560405180604001604052806040518060400160405280600381526020017f616170000000000000000000000000000000000000000000000000000000000081525081526020016040518060400160405280600381526020017f626a7000000000000000000000000000000000000000000000000000000000008152508152506003906002620000f89291906200017d565b5060038054905060045560045467ffffffffffffffff81111562000121576200012062000451565b5b604051908082528060200260200182016040528015620001505781602001602082028036833780820191505090505b506005908051906020019062000168929190620001e4565b503480156200017657600080fd5b50620004e4565b828054828255906000526020600020908101928215620001d1579160200282015b82811115620001d0578251829080519060200190620001bf92919062000236565b50916020019190600101906200019e565b5b509050620001e09190620002c7565b5090565b82805482825590600052602060002090810192821562000223579160200282015b828111156200022257825182559160200191906001019062000205565b5b509050620002329190620002ef565b5090565b8280546200024490620004af565b90600052602060002090601f016020900481019282620002685760008555620002b4565b82601f106200028357805160ff1916838001178555620002b4565b82800160010185558215620002b4579182015b82811115620002b357825182559160200191906001019062000296565b5b509050620002c39190620002ef565b5090565b5b80821115620002eb5760008181620002e191906200030e565b50600101620002c8565b5090565b5b808211156200030a576000816000905550600101620002f0565b5090565b5080546200031c90620004af565b6000825580601f1062000330575062000351565b601f016020900490600052602060002090810190620003509190620002ef565b5b50565b6000819050919050565b7f4e487b7100000000000000000000000000000000000000000000000000000000600052601260045260246000fd5b7f4e487b7100000000000000000000000000000000000000000000000000000000600052601160045260246000fd5b6000620003c98262000354565b9150620003d68362000354565b925082620003e957620003e86200035e565b5b828204905092915050565b6000620004018262000354565b91506200040e8362000354565b9250827fffffffffffffffffffffffffffffffffffffffffffffffffffffffffffffffff038211156200044657620004456200038d565b5b828201905092915050565b7f4e487b7100000000000000000000000000000000000000000000000000000000600052604160045260246000fd5b7f4e487b7100000000000000000000000000000000000000000000000000000000600052602260045260246000fd5b60006002820490506001821680620004c857607f821691505b602082108103620004de57620004dd62000480565b5b50919050565b6105e080620004f46000396000f3fe608060405234801561001057600080fd5b50600436106100575760003560e01c8063083c63231461005c5780631b4306e91461007a57806370651a18146100aa578063974b89d5146100da578063b16622c61461010a575b600080fd5b610064610128565b6040516100719190610253565b60405180910390f35b610094600480360381019061008f91906102ae565b61012e565b6040516100a19190610253565b60405180910390f35b6100c460048036038101906100bf91906102ae565b610152565b6040516100d19190610374565b60405180910390f35b6100f460048036038101906100ef91906104cb565b6101fe565b604051610101919061052f565b60405180910390f35b610112610234565b60405161011f9190610253565b60405180910390f35b60025481565b6005818154811061013e57600080fd5b906000526020600020016000915090505481565b6003818154811061016257600080fd5b90600052602060002001600091509050805461017d90610579565b80601f01602080910402602001604051908101604052809291908181526020018280546101a990610579565b80156101f65780601f106101cb576101008083540402835291602001916101f6565b820191906000526020600020905b8154815290600101906020018083116101d957829003601f168201915b505050505081565b6000818051602081018201805184825260208301602085012081835280955050505050506000915054906101000a900460ff1681565b60045481565b6000819050919050565b61024d8161023a565b82525050565b60006020820190506102686000830184610244565b92915050565b6000604051905090565b600080fd5b600080fd5b61028b8161023a565b811461029657600080fd5b50565b6000813590506102a881610282565b92915050565b6000602082840312156102c4576102c3610278565b5b60006102d284828501610299565b91505092915050565b600081519050919050565b600082825260208201905092915050565b60005b838110156103155780820151818401526020810190506102fa565b83811115610324576000848401525b50505050565b6000601f19601f8301169050919050565b6000610346826102db565b61035081856102e6565b93506103608185602086016102f7565b6103698161032a565b840191505092915050565b6000602082019050818103600083015261038e818461033b565b905092915050565b600080fd5b600080fd5b7f4e487b7100000000000000000000000000000000000000000000000000000000600052604160045260246000fd5b6103d88261032a565b810181811067ffffffffffffffff821117156103f7576103f66103a0565b5b80604052505050565b600061040a61026e565b905061041682826103cf565b919050565b600067ffffffffffffffff821115610436576104356103a0565b5b61043f8261032a565b9050602081019050919050565b82818337600083830152505050565b600061046e6104698461041b565b610400565b90508281526020810184848401111561048a5761048961039b565b5b61049584828561044c565b509392505050565b600082601f8301126104b2576104b1610396565b5b81356104c284826020860161045b565b91505092915050565b6000602082840312156104e1576104e0610278565b5b600082013567ffffffffffffffff8111156104ff576104fe61027d565b5b61050b8482850161049d565b91505092915050565b60008115159050919050565b61052981610514565b82525050565b60006020820190506105446000830184610520565b92915050565b7f4e487b7100000000000000000000000000000000000000000000000000000000600052602260045260246000fd5b6000600282049050600182168061059157607f821691505b6020821081036105a4576105a361054a565b5b5091905056fea264697066735822122060090009bc21423f5c2e6d7a7920cfd12a52653c686d43793420765d94f2ac8764736f6c634300080d0033",
  "immutableReferences": {},
  "source": "// SPDX-License-Identifier: MIT\n//*0x468e147bE60cFa8841521FBF813e10109d5192De*/\npragma solidity ^0.8.13;\n\ncontract DVote {\n    mapping(string => bool) public checkVote;\n    address private owner = msg.sender;\n    uint256 public endBlock = block.number + uint256(2 days) / 13;\n    string[] public parties = [\"aap\", \"bjp\"];\n    uint256 public numberOfParties = parties.length;\n    uint256[] public partyVote = new uint256[](numberOfParties);\n}\n",
  "sourcePath": "C:\\Users\\Durgesh Maurya\\Desktop\\truffle-project\\contracts\\DVote.sol",
  "compiler": {
    "name": "solc",
    "version": "0.8.13+commit.abaa5c0e.Emscripten.clang"
  },
  "schemaVersion": "3.4.6",
  "updatedAt": "2022-03-31T06:55:07.098Z",
  "networkType": "ethereum",
  "devdoc": {
    "kind": "dev",
    "methods": {},
    "version": 1
  },
  "userdoc": {
    "kind": "user",
    "methods": {},
    "version": 1
  }
}