{
  "contractName": "Vote",
  "abi": [
    {
      "inputs": [
        {
          "internalType": "string[]",
          "name": "_parties",
          "type": "string[]"
        }
      ],
      "stateMutability": "nonpayable",
      "type": "constructor"
    },
    {
      "anonymous": false,
      "inputs": [
        {
          "indexed": false,
          "internalType": "string",
          "name": "name",
          "type": "string"
        },
        {
          "indexed": false,
          "internalType": "int256",
          "name": "rollNo",
          "type": "int256"
        }
      ],
      "name": "guessMe",
      "type": "event"
    },
    {
      "inputs": [
        {
          "internalType": "string",
          "name": "",
          "type": "string"
        }
      ],
      "name": "checkVote",
      "outputs": [
        {
          "internalType": "bool",
          "name": "",
          "type": "bool"
        }
      ],
      "stateMutability": "view",
      "type": "function",
      "constant": true
    },
    {
      "inputs": [],
      "name": "endBlock",
      "outputs": [
        {
          "internalType": "uint256",
          "name": "",
          "type": "uint256"
        }
      ],
      "stateMutability": "view",
      "type": "function",
      "constant": true
    },
    {
      "inputs": [
        {
          "internalType": "uint256",
          "name": "",
          "type": "uint256"
        }
      ],
      "name": "parties",
      "outputs": [
        {
          "internalType": "string",
          "name": "",
          "type": "string"
        }
      ],
      "stateMutability": "view",
      "type": "function",
      "constant": true
    },
    {
      "inputs": [
        {
          "internalType": "uint256",
          "name": "",
          "type": "uint256"
        }
      ],
      "name": "partyVote",
      "outputs": [
        {
          "internalType": "uint256",
          "name": "",
          "type": "uint256"
        }
      ],
      "stateMutability": "view",
      "type": "function",
      "constant": true
    },
    {
      "inputs": [],
      "name": "endCastingVote",
      "outputs": [
        {
          "internalType": "uint256[]",
          "name": "votes",
          "type": "uint256[]"
        }
      ],
      "stateMutability": "nonpayable",
      "type": "function"
    },
    {
      "inputs": [
        {
          "internalType": "string",
          "name": "adhar",
          "type": "string"
        },
        {
          "internalType": "uint256",
          "name": "whom",
          "type": "uint256"
        }
      ],
      "name": "castVote",
      "outputs": [],
      "stateMutability": "nonpayable",
      "type": "function"
    }
  ],
  "bytecode": "0x60806040523480156200001157600080fd5b50604051620013ff380380620013ff83398181016040528101906200003791906200059d565b80600490805190602001906200004f9291906200012d565b506000600480549050905033600260006101000a81548173ffffffffffffffffffffffffffffffffffffffff021916908373ffffffffffffffffffffffffffffffffffffffff160217905550600d6202a300620000ad919062000656565b43620000ba91906200068e565b6003819055508067ffffffffffffffff811115620000dd57620000dc6200032e565b5b6040519080825280602002602001820160405280156200010c5781602001602082028036833780820191505090505b50600190805190602001906200012492919062000194565b5050506200074f565b82805482825590600052602060002090810192821562000181579160200282015b82811115620001805782518290805190602001906200016f929190620001e6565b50916020019190600101906200014e565b5b50905062000190919062000277565b5090565b828054828255906000526020600020908101928215620001d3579160200282015b82811115620001d2578251825591602001919060010190620001b5565b5b509050620001e291906200029f565b5090565b828054620001f4906200071a565b90600052602060002090601f01602090048101928262000218576000855562000264565b82601f106200023357805160ff191683800117855562000264565b8280016001018555821562000264579182015b828111156200026357825182559160200191906001019062000246565b5b5090506200027391906200029f565b5090565b5b808211156200029b5760008181620002919190620002be565b5060010162000278565b5090565b5b80821115620002ba576000816000905550600101620002a0565b5090565b508054620002cc906200071a565b6000825580601f10620002e0575062000301565b601f0160209004906000526020600020908101906200030091906200029f565b5b50565b6000604051905090565b600080fd5b600080fd5b600080fd5b6000601f19601f8301169050919050565b7f4e487b7100000000000000000000000000000000000000000000000000000000600052604160045260246000fd5b62000368826200031d565b810181811067ffffffffffffffff821117156200038a57620003896200032e565b5b80604052505050565b60006200039f62000304565b9050620003ad82826200035d565b919050565b600067ffffffffffffffff821115620003d057620003cf6200032e565b5b602082029050602081019050919050565b600080fd5b600080fd5b600067ffffffffffffffff8211156200040957620004086200032e565b5b62000414826200031d565b9050602081019050919050565b60005b838110156200044157808201518184015260208101905062000424565b8381111562000451576000848401525b50505050565b60006200046e6200046884620003eb565b62000393565b9050828152602081018484840111156200048d576200048c620003e6565b5b6200049a84828562000421565b509392505050565b600082601f830112620004ba57620004b962000318565b5b8151620004cc84826020860162000457565b91505092915050565b6000620004ec620004e684620003b2565b62000393565b90508083825260208201905060208402830185811115620005125762000511620003e1565b5b835b818110156200056057805167ffffffffffffffff8111156200053b576200053a62000318565b5b8086016200054a8982620004a2565b8552602085019450505060208101905062000514565b5050509392505050565b600082601f83011262000582576200058162000318565b5b815162000594848260208601620004d5565b91505092915050565b600060208284031215620005b657620005b56200030e565b5b600082015167ffffffffffffffff811115620005d757620005d662000313565b5b620005e5848285016200056a565b91505092915050565b6000819050919050565b7f4e487b7100000000000000000000000000000000000000000000000000000000600052601260045260246000fd5b7f4e487b7100000000000000000000000000000000000000000000000000000000600052601160045260246000fd5b60006200066382620005ee565b91506200067083620005ee565b925082620006835762000682620005f8565b5b828204905092915050565b60006200069b82620005ee565b9150620006a883620005ee565b9250827fffffffffffffffffffffffffffffffffffffffffffffffffffffffffffffffff03821115620006e057620006df62000627565b5b828201905092915050565b7f4e487b7100000000000000000000000000000000000000000000000000000000600052602260045260246000fd5b600060028204905060018216806200073357607f821691505b602082108103620007495762000748620006eb565b5b50919050565b610ca0806200075f6000396000f3fe608060405234801561001057600080fd5b50600436106100625760003560e01c8063083c6323146100675780631b4306e91461008557806370651a18146100b5578063974b89d5146100e5578063d442f3cb14610115578063e3b9e2fa14610133575b600080fd5b61006f61014f565b60405161007c91906104d4565b60405180910390f35b61009f600480360381019061009a919061052f565b610155565b6040516100ac91906104d4565b60405180910390f35b6100cf60048036038101906100ca919061052f565b610179565b6040516100dc91906105f5565b60405180910390f35b6100ff60048036038101906100fa919061074c565b610225565b60405161010c91906107b0565b60405180910390f35b61011d61025b565b60405161012a9190610889565b60405180910390f35b61014d6004803603810190610148919061090b565b61034a565b005b60035481565b6001818154811061016557600080fd5b906000526020600020016000915090505481565b6004818154811061018957600080fd5b9060005260206000200160009150905080546101a49061099a565b80601f01602080910402602001604051908101604052809291908181526020018280546101d09061099a565b801561021d5780601f106101f25761010080835404028352916020019161021d565b820191906000526020600020905b81548152906001019060200180831161020057829003601f168201915b505050505081565b6000818051602081018201805184825260208301602085012081835280955050505050506000915054906101000a900460ff1681565b6060600260009054906101000a900473ffffffffffffffffffffffffffffffffffffffff1673ffffffffffffffffffffffffffffffffffffffff163373ffffffffffffffffffffffffffffffffffffffff16146102ed576040517f08c379a00000000000000000000000000000000000000000000000000000000081526004016102e490610a17565b60405180910390fd5b43600381905550600180548060200260200160405190810160405280929190818152602001828054801561034057602002820191906000526020600020905b81548152602001906001019080831161032c575b5050505050905090565b600354431061038e576040517f08c379a000000000000000000000000000000000000000000000000000000000815260040161038590610a83565b60405180910390fd5b60001515600084846040516103a4929190610ad3565b908152602001604051809103902060009054906101000a900460ff16151514610402576040517f08c379a00000000000000000000000000000000000000000000000000000000081526004016103f990610b38565b60405180910390fd5b6004805490508110610449576040517f08c379a000000000000000000000000000000000000000000000000000000000815260040161044090610ba4565b60405180910390fd5b6001818154811061045d5761045c610bc4565b5b90600052602060002001600081548092919061047890610c22565b9190505550600160008484604051610491929190610ad3565b908152602001604051809103902060006101000a81548160ff021916908315150217905550505050565b6000819050919050565b6104ce816104bb565b82525050565b60006020820190506104e960008301846104c5565b92915050565b6000604051905090565b600080fd5b600080fd5b61050c816104bb565b811461051757600080fd5b50565b60008135905061052981610503565b92915050565b600060208284031215610545576105446104f9565b5b60006105538482850161051a565b91505092915050565b600081519050919050565b600082825260208201905092915050565b60005b8381101561059657808201518184015260208101905061057b565b838111156105a5576000848401525b50505050565b6000601f19601f8301169050919050565b60006105c78261055c565b6105d18185610567565b93506105e1818560208601610578565b6105ea816105ab565b840191505092915050565b6000602082019050818103600083015261060f81846105bc565b905092915050565b600080fd5b600080fd5b7f4e487b7100000000000000000000000000000000000000000000000000000000600052604160045260246000fd5b610659826105ab565b810181811067ffffffffffffffff8211171561067857610677610621565b5b80604052505050565b600061068b6104ef565b90506106978282610650565b919050565b600067ffffffffffffffff8211156106b7576106b6610621565b5b6106c0826105ab565b9050602081019050919050565b82818337600083830152505050565b60006106ef6106ea8461069c565b610681565b90508281526020810184848401111561070b5761070a61061c565b5b6107168482856106cd565b509392505050565b600082601f83011261073357610732610617565b5b81356107438482602086016106dc565b91505092915050565b600060208284031215610762576107616104f9565b5b600082013567ffffffffffffffff8111156107805761077f6104fe565b5b61078c8482850161071e565b91505092915050565b60008115159050919050565b6107aa81610795565b82525050565b60006020820190506107c560008301846107a1565b92915050565b600081519050919050565b600082825260208201905092915050565b6000819050602082019050919050565b610800816104bb565b82525050565b600061081283836107f7565b60208301905092915050565b6000602082019050919050565b6000610836826107cb565b61084081856107d6565b935061084b836107e7565b8060005b8381101561087c5781516108638882610806565b975061086e8361081e565b92505060018101905061084f565b5085935050505092915050565b600060208201905081810360008301526108a3818461082b565b905092915050565b600080fd5b600080fd5b60008083601f8401126108cb576108ca610617565b5b8235905067ffffffffffffffff8111156108e8576108e76108ab565b5b602083019150836001820283011115610904576109036108b0565b5b9250929050565b600080600060408486031215610924576109236104f9565b5b600084013567ffffffffffffffff811115610942576109416104fe565b5b61094e868287016108b5565b935093505060206109618682870161051a565b9150509250925092565b7f4e487b7100000000000000000000000000000000000000000000000000000000600052602260045260246000fd5b600060028204905060018216806109b257607f821691505b6020821081036109c5576109c461096b565b5b50919050565b7f7065726d697373696f6e2064656e696564000000000000000000000000000000600082015250565b6000610a01601183610567565b9150610a0c826109cb565b602082019050919050565b60006020820190508181036000830152610a30816109f4565b9050919050565b7f766f74696e675f656e6465640000000000000000000000000000000000000000600082015250565b6000610a6d600c83610567565b9150610a7882610a37565b602082019050919050565b60006020820190508181036000830152610a9c81610a60565b9050919050565b600081905092915050565b6000610aba8385610aa3565b9350610ac78385846106cd565b82840190509392505050565b6000610ae0828486610aae565b91508190509392505050565b7f796f27766520616c726561647920766f74656400000000000000000000000000600082015250565b6000610b22601383610567565b9150610b2d82610aec565b602082019050919050565b60006020820190508181036000830152610b5181610b15565b9050919050565b7f696e76616c696420706172697479206e6f000000000000000000000000000000600082015250565b6000610b8e601183610567565b9150610b9982610b58565b602082019050919050565b60006020820190508181036000830152610bbd81610b81565b9050919050565b7f4e487b7100000000000000000000000000000000000000000000000000000000600052603260045260246000fd5b7f4e487b7100000000000000000000000000000000000000000000000000000000600052601160045260246000fd5b6000610c2d826104bb565b91507fffffffffffffffffffffffffffffffffffffffffffffffffffffffffffffffff8203610c5f57610c5e610bf3565b5b60018201905091905056fea2646970667358221220518d25219ec11b5763c1de0e0d19a27a654624e20298af164f6c6e383dcaf00064736f6c634300080d0033",
  "immutableReferences": {},
  "source": "//SPDX-License-Identifier: MIT\n/*0x468e147bE60cFa8841521FBF813e10109d5192De*/\npragma solidity ^0.8.6;\ncontract Vote{\n    mapping(string=>bool) public checkVote;\n    uint[] public partyVote;\n    address private owner;\n    uint public endBlock;\n    string[]public  parties;\n    event guessMe(string name,int rollNo);\n    constructor(string[] memory _parties){\n        parties=_parties;\n        uint numberOfParties=parties.length;\n        owner=msg.sender;\n        endBlock=block.number+uint(2 days)/13;\n        partyVote=new uint[](numberOfParties);\n    }\n    modifier is_owner() {\n        require(msg.sender==owner,\"permission denied\");\n        _;\n    }\n    function endCastingVote()public  is_owner returns(uint[] memory votes){\n        endBlock=block.number;\n         return partyVote;\n    }\n    function castVote(string calldata adhar,uint whom)external{\n        require(block.number<endBlock,\"voting_ended\");\n        require(checkVote[adhar]==false,\"yo've already voted\");\n        require(whom<parties.length,\"invalid parity no\");\n        partyVote[whom]++;\n        checkVote[adhar]=true;\n    }\n}\n",
  "sourcePath": "C:\\Users\\Durgesh Maurya\\Desktop\\truffle-project\\contracts\\Vote.sol",
  "compiler": {
    "name": "solc",
    "version": "0.8.13+commit.abaa5c0e.Emscripten.clang"
  },
  "schemaVersion": "3.4.6",
  "updatedAt": "2022-03-31T12:54:24.706Z",
  "networkType": "ethereum",
  "devdoc": {
    "kind": "dev",
    "methods": {},
    "version": 1
  },
  "userdoc": {
    "kind": "user",
    "methods": {},
    "version": 1
  }
}